:1039000001C0000013E0ABEDB3E0ECE2F2E102C075
:1039100005900D92A83FB107D9F723E0AEE7B2E0DA
:1039200001C01D92AB3DB207E1F7FBC2CF93DF931D
:10393000FB01EA0168177907A0F0D901A41BB50BB8
:10394000A617B70790F49D012F5F3F4FDC010E943F
:10395000F40831969F0150E040E00E94D2082C0FFD
:103960003D1FC901DF91CF9108959C010E94F40889
:10397000F1CFE0E0F1E091838083938382839583AC
:10398000848397838683918780879387828708952E
:103990000F931F93CF93DF93FC01BC016F5F7F4FA9
:1039A0008FEF9FEF0E94AB08EB010091DF031091B6
:1039B000E0032091E1033091E203D901C8014DE019
:1039C000880F991FAA1FBB1F4A95D1F780279127FF
:1039D000A227B327AC01BD0111E1769567955795F4
:1039E00047951A95D1F784279527A627B7278C01E5
:1039F0009D0145E0000F111F221F331F4A95D1F78B
:103A0000082719272A273B27C801BE010E94AB08B7
:103A1000CB01E617F70788F20093DF031093E0036A
:103A20002093E1033093E203DF91CF911F910F9137
:103A300008950F931F939CE2899FF0011124E7538F
:103A4000FD4F81E002811381248135814091D103B2
:103A50005091D2036091D3037091D40304171507DA
:103A60002607370708F080E01F910F910895CF9344
:103A7000C0E08C2FDEDF882331F0CF5FC630C9F77E
:103A800081E0CF91089580E0FCCF8091D1039091A7
:103A9000D203A091D303B091D4038054984DA64F84
:103AA000BF4F8093D5039093D603A093D703B093D1
:103AB000D80308958091D1039091D203A091D303AC
:103AC000B091D40340917E0250917F0260918002B8
:103AD00070918102481759076A077B0780F4805369
:103AE000984FAF4FBF4F80937E0290937F02A09379
:103AF0008002B09381028FE38093B602C6CF08950F
:103B0000F8948091310190913201A0913301B091EC
:103B100034018093D1039093D203A093D303B09345
:103B2000D4037894089590E0882341F0282F30E062
:103B300080FD9F5F35952795822FF6CF892F817065
:103B4000089581E08093A7024091D1035091D20360
:103B50006091D3037091D4031092E4038093B50273
:103B6000EEEAF2E083E0808381838283838384832F
:103B700085834C53564F6F4F7F4F40938E02509327
:103B80008F0260939002709391020895CF93DF9318
:103B900030E020E0E82FF0E03696C6E0D0E0422F9B
:103BA000CF01821B930BBE016AD7823040F0853073
:103BB00031F0D901A255BD4F8C91813029F02F5F92
:103BC0003F4F2630310559F7842FDF91CF9108956B
:103BD00010929E021092B40281E08093E30310924F
:103BE000B502E8EAF2E01082118212821382148296
:103BF0001582089581E08093E403EEEAF2E0A6E9FD
:103C0000B2E011921D9282E0E43BF807D1F7E0CFD9
:103C1000DF92EF92FF920F931F93CF93DF93082FC2
:103C2000D0E0C0E03CE2F32E4AE0E42E56E4D52E8C
:103C300080919E02811180C0FE01E255FD4F1081EE
:103C4000113009F079C08C2FF4DE811175C0FC9E13
:103C5000F001FD9EF00D1124E753FD4F808190E0AF
:103C600024E0959587952A95E1F7813009F064C0A5
:103C700010939E028C2FC0939C0288DF80939D023C
:103C80001092A8021092A9021092AA021092AB02FE
:103C90001092AC021092AD02FE01E855FD4F108368
:103CA0000093A60283E090E073DE8093A502109358
:103CB000B4021092960210929702109298021092FB
:103CC000990210929A0210929B0220EB34E04AE98A
:103CD00052E083E290E0013081F48091D9038E9D1F
:103CE000802D11248D518734A0F58093E30328EEB5
:103CF00033E048EC50E086E490E0E091E303BC015F
:103D00008E1B910913DE9C019093A4028093A30261
:103D10008091D1039091D203A091D303B091D403A9
:103D2000820F931FA11DB11D80939F029093A0024B
:103D3000A093A102B093A2022196C630D10509F04A
:103D400077CFDF91CF911F910F91FF90EF90DF9090
:103D50000895D092E303CBCF9F92AF92BF92CF92C0
:103D6000DF92EF92FF920F931F93CF93DF930E9406
:103D7000141C40E0E42E41E0F42E02E812E08CE056
:103D800091E0D801F701219131912D933D938E1748
:103D90009F07C9F7D8EC2FE1922EAA24AA94B12C40
:103DA000CD2ED12CC99CC0011124B50168D6962F07
:103DB000990F990F990F81E0DCDD0E94101C8AEFAA
:103DC000C80E42E06DED73E08D2D0E94081CD39467
:103DD00096E0D912E7CFD452D43111F781E090E0C8
:103DE000C8DD0E94101CF8944091310150913201BD
:103DF0006091330170913401789410923F011092D8
:103E00004D0110927F011092B1011092E3011092C6
:103E100015021092470281E08093410180913F0199
:103E200080FF66C0F8944093310150933201609353
:103E30003301709334010E94141C789426DE109292
:103E40004D0110927F011092B1011092E301109286
:103E5000150210924702D0E08FE1982ECC24CA942C
:103E6000D12CAD2EB12CE6E0AE0EA99CC0011124E0
:103E7000B60105D6862F8F71C160982F990FC17C2E
:103E8000C92B6295660F660F607CCF73C62B982F87
:103E9000990F990F990F86958695982B8C2F69DD30
:103EA0000E94101C42E06BED73E08B2D0E94081CF9
:103EB000B394F6E0BF12D7CFDC5DD43B91F68EE829
:103EC00092E0F801219131918F01F7012193319313
:103ED0007F0180179107A9F7DF91CF911F910F9173
:103EE000FF90EF90DF90CF90BF90AF909F9008959C
:103EF00080914101882309F495CFEDE4F1E080E061
:103F00009081992329F09481953109F081E0108204
:103F1000F29692E0E937F90799F7882309F47ECF02
:103F200081CFCF93DF93CDB7DEB729970FB6F89443
:103F3000DEBF0FBECDBF81E080934101E1DDA5DD95
:103F40008EEB9AEB9093F9038093F80380E48093CF
:103F500060008091DF039091E003A091E103B091B4
:103F6000E20320E210922701309127013323E1F38D
:103F7000309127013130C1F330912701880F991F0B
:103F8000AA1FBB1F3170832B215061F78093DF0381
:103F90009093E003A093E103B093E2030FB6F8948B
:103FA000A895809160008861809360001092600005
:103FB0000FBE85E090E09C01265932403F832E835E
:103FC0008091F8039091F9038E3B9A4B19F084E0AD
:103FD0000E941E1C80913F0186FF51C048DD88234E
:103FE00009F44DC000E011E042E852E05A834983F1
:103FF0008CE091E0DA01F801219131912D933D930C
:104000008E179F07C9F7F12CDD24D39438EFC32E08
:1040100080913E01882321F080913F0187FF18C0E5
:10402000A981BA818D919D91BA83A983F801819369
:1040300091938F01AE58B24099F780913F0187FD6F
:104040001DC081E090E095DC0E94101C0E94121CB3
:1040500081E090E08EDCEE24E394EF0CEF2DF0E0B5
:10406000EE0FFF1FE050FF4FD082C18226E0E21228
:1040700001C0E12C0E94101CFE2CCACF6DDE809185
:104080003F0187FD69DE3CDD80913F0180FD12DD4F
:1040900009EC12E04DE451E05A834983A981BA81C9
:1040A0008C918823B9F18091D1039091D203A09192
:1040B000D303B091D40388539F4FAF4FBF4FF80144
:1040C00082839383A483B583A981BA8113968C914B
:1040D00013978733E1F41296EC9012971496FC90A4
:1040E0008F2D21DD882399F0F80116821782108622
:1040F0001186F6FE03C0DEDC0E94141C9FEF9E0DAD
:104100008F2D8F73913009F0ECC0D8018C93E98129
:10411000FA811082045D1F4F29813A812E5C3F4F46
:104120003A8329832957324009F0B8CFF894809117
:104130003E0190913F018091DA03892B8093DA034D
:1041400010923F01809140018093D903789450915F
:10415000DA0359835F7E5D835093DA03898184FF9C
:1041600004C048DD83E08093A702F090E403FF20C1
:1041700009F4F9C07CDC082F811199C0E12C10E012
:104180001A8219829CE2D92E1111E3C0898151DC77
:10419000811112C0A981BA81DA9EF001DB9EF00D77
:1041A0001124E753FD4F808182958F70813009F48F
:1041B000D2C0882309F4D2C0E981FA813196FA830A
:1041C000E983369709F7111103C0EE2009F46FC097
:1041D00082E08093AE028093AF028093B00280931E
:1041E000B1028093B2028093B302E22CF12CF7016A
:1041F000E255FD4F81E0808320929D0281E090E0B6
:10420000C7DB9A83898381E090E0C2DB97012E5F50
:104210003F4F49815A81240F351F820F931F66E05B
:1042200070E019D4182F1A82198256E0E50EF11C9D
:10423000B6E0CB2ED12C8CE2B82EA980C701A98183
:10424000BA818A1B9B0BB6011AD48230E8F0853004
:10425000D9F0011186C08A2DECDB811115C02981AE
:104260003A81B29EF001B39EF00D1124E753FD4F49
:10427000808190E0A4E095958795AA95E1F701E00B
:10428000813009F000E01A2D49815A814F5F5F4F5C
:104290005A8349834630510581F6E12FF0E0E2551B
:1042A000FD4F81E0808310939C021092E40399EC0F
:1042B000A92E92E0B92E750100E0D12CC12C10E09E
:1042C000812FB7DB8111B4C2D7018C91837009F4BF
:1042D000ADC2813009F42BC3833009F0A9C201E0DB
:1042E000A7C28A3239F58DEF8E0D69817A816B5FB5
:1042F0007F4FFB0190E039813B5F2E2F231B281756
:1043000020F42081920F3196F8CF482F50E0FB0126
:10431000E40FF51F208190952913F9CEF8019285BD
:104320009111F5CE813108F0F2CE8287C8010B964B
:10433000F4D3EDCE923009F0EACE853109F0E7CE24
:10434000A981BA8115968C91853109F0E0CE04DD02
:10435000DECE11E031CF29801F2D2ECF2980EF2C0A
:104360002BCF01E091CF8090D1039090D203A09009
:10437000D303B090D4038091B502882351F180918A
:104380008E0290918F02A0919002B09191028815B7
:104390009905AA05BB0508F08ACF1ADC82E0809354
:1043A000AE028093AF028093B0028093B1028093FB
:1043B000B2028093B302E0919D02F0E0E255FD4F1E
:1043C00081E08083E0919C02F0E0E255FD4F808324
:1043D0006ECFC090B402CC2009F41EC1F0909C02B4
:1043E0008F2D90E09C838B838C0108551D4FD80145
:1043F0008C91813009F0DEC080919F029091A002E3
:10440000A091A102B091A20288159905AA05BB0549
:1044100008F05BC08F2D0DDB8111FCC08CE22B817D
:104420003C81829FF001839FF00D1124E753FD4FE3
:10443000808190E09C01F4E035952795FA95E1F7AD
:10444000213009F0E7C095958795959587958370FC
:10445000823009F0DFC083E0D8018C938091E303C0
:10446000282F30E02F5F3F4F9091A60243E250E0AB
:10447000992311F046E450E04217530708F08F5F8C
:104480002091A502ECE24B815C81E49FD001E59F85
:10449000B00D1124A753BD4F33E05B963C93FE9EB5
:1044A000F0011124EB51FD4F808391832283D501CC
:1044B000C4018A569F4FAF4FBF4F80939202909393
:1044C0009302A0939402B09395024090A30250905F
:1044D000A402712C612C00919F021091A0022091E6
:1044E000A1023091A20268017901C818D908EA082E
:1044F000FB0880919D02E82FF0E0FA83E983CF0169
:1045000006964B815C81841B950B66E070E0B7D208
:104510008250E82FF0E080169106A206B30618F04C
:10452000C12CD12C7601A30192012C193D094E0911
:104530005F09A4E6B0E0E7D26B017C0186E992E076
:104540009C838B838E809F80A981BA818A1A9B0A63
:1045500006E010E026E02E9FC0012F9F900D112451
:10456000FC01EB51FC4F5F0133243394AB81BC81E0
:104570008D91BC83AB83811115C0C701B601A30126
:10458000920190D28B819C81880D991DB80177D2C0
:10459000F501E80FF11D8081821720F4EB81FC8189
:1045A00031973082ECE9F2E02B813C81E217F3078E
:1045B000E9F67DCE833009F088CF8F2D3ADA81116C
:1045C00016C08CE2AB81BC818A9FF0018B9FF00DFD
:1045D0001124E753FD4F808190E09595879595953F
:1045E00087958370813019F4F8011082F1DAD801CF
:1045F0008C91833009F069CF80919202909193025F
:10460000A0919402B091950288159905AA05BB0561
:1046100008F05BCF96DA59CF4EEA52E05C834B83C9
:104620002A01198618866CE2362E66246394D88493
:10463000D2017D902D01B1E07B1221C00885198542
:1046400008551D4FF801808181115FC08D2DF1D972
:10465000811115C028853985329EF001339EF00DF9
:104660001124E753FD4F808190E0959587959595AE
:1046700087958370813019F4E2E0D801EC932885A6
:1046800039852F5F3F4F398728872630310579F6E6
:1046900049EC52E05987488710E0AB81BC818D918D
:1046A000BC83AB83813089F4812FC3D981110DC0C4
:1046B000E885F985808190E024E0959587952A9595
:1046C000E1F7823011F0CC24C3941F5F288539852F
:1046D000245D3F4F398728871630F9F6C11001C095
:1046E00089DA3981377E3B833093DA034D8143FF8A
:1046F00002C080E08DDA8981877C8093DA035B8158
:1047000055FFD5CD81E084DAD2CD823009F0B7CF24
:1047100088858FD9882319F0D8011C92B0CFE885FD
:10472000F9853E9EC0013F9E900D11249C012753A8
:104730003D4F7901D9018C9190E09C0144E0359581
:1047400027954A95E1F7213019F0F801108297CFAB
:10475000959587959595879580FFDECF83708330FB
:1047600009F08DCFF7018285833009F088CFE3858A
:10477000E093E3031C968C911C978093A6021D96F0
:104780009C919093A5021092A8021092A9021092F7
:10479000AA021092AB021092AC021092AD0270927B
:1047A000B402109296021092970210929802109200
:1047B000990210929A0210929B02811130C020EB54
:1047C00034E04AE952E083E290E0BC018E1B91099B
:1047D000ADD89093A4028093A302A5019401280F61
:1047E000391F411D511DDA01C90180939F02909329
:1047F000A002A093A102B093A20260929E02D09266
:104800009D028D2DC3D980939C02D8016C92E82F14
:10481000F0E0E855FD4F6082F701128630CF28EEB8
:1048200033E048EC50E086E490E0CFCFCC24C39452
:104830001F5FBCE2EB0EF11C163009F041CD8091F8
:10484000A702811177C0DD2019F081E08093A702D3
:10485000002321F0CFD983E08093A70281E090E08C
:1048600088D82091A702EEEAF2E048EA52E081916E
:10487000DA019D91AD018295807F990F990F890F83
:10488000820F803408F08FE3D50111968C93BCE23F
:10489000AB0EB11C32E0E43BF30749F78091DA0339
:1048A000877D8093DA030E94101C812C912C540187
:1048B00049EC52E05A834983CC24C394D12C682C10
:1048C000A981BA8116964D915D916D917C91199750
:1048D0008091D1039091D203A091D303B091D403DE
:1048E00084179507A607B70708F47EC0E981FA8107
:1048F000738C772009F4A2C07F01FCE1EF0EF11C5C
:10490000072D10E0A801B70188EB92E006D10F5FF8
:104910001F4F80E02981245E9E2D921B9715E0F4A5
:10492000D7019C91890FF70131967F01F5CFDD24E6
:10493000D3947ECF982F9D7F913021F4C1108ECFDC
:1049400082E08ACF823009F089CFD11087CF011160
:1049500085CF1092A70282CFF801E954FD4F8095D0
:104960008083739473941AE2F090B602E82C8F2D32
:1049700090E0082C02C0959587950A94E2F780FF95
:1049800064C0012F0064802FCED8811102C0012F96
:10499000006CC60101C0880FEA94EAF780958F2168
:1049A0008093B602102F1093B702472D67EB72E089
:1049B000862D0E94081C8823B9F08091D103909124
:1049C000D203A091D303B091D4038A569F4FAF4F27
:1049D000BF4F880D991DAA1DBB1DE981FA818683F1
:1049E0009783A087B187138E29813A81245D3F4F39
:1049F0003A8329833FEF831A930AA30AB30A46E056
:104A000084169104A104B10409F059CF4091D50353
:104A10005091D6036091D7037091D8038091D10350
:104A20009091D203A091D303B091D40348175907B2
:104A30006A077B0708F0C4CA8FD9C2CAA981BA81A4
:104A400011961C91772473948FCF812F6CD881118C
:104A5000AACF1068A8CFAA1BBB1B51E107C0AA1F91
:104A6000BB1FA617B70710F0A61BB70B881F991F0F
:104A70005A95A9F780959095BC01CD01089597FBB3
:104A8000072E16F4009406D077FD08D0E4DF07FC6B
:104A900005D03EF4909581959F4F0895709561954E
:104AA0007F4F0895A1E21A2EAA1BBB1BFD010DC06A
:104AB000AA1FBB1FEE1FFF1FA217B307E407F507CE
:104AC00020F0A21BB30BE40BF50B661F771F881FAA
:104AD000991F1A9469F760957095809590959B0140
:104AE000AC01BD01CF010895A29FB001B39FC001E9
:104AF000A39F700D811D1124911DB29F700D811D0A
:104B00001124911D0895F0DFA59F900DB49F900D85
:104B1000A49F800D911D11240895FB01DC0102C0AA
:0C4B200001900D9241505040D8F70895CC
:104B2C0033331515A28CD69201010519324B5F193E
:0D4B3C000521425F422105195F4B3219002F
:0400000300003900C0
:00000001FF
